{
  "_format": "hh-sol-artifact-1",
  "contractName": "NFTMarketplace",
  "sourceName": "contracts/NFTMarketplace.sol",
  "abi": [
    {
      "inputs": [],
      "stateMutability": "nonpayable",
      "type": "constructor"
    },
    {
      "anonymous": false,
      "inputs": [
        {
          "indexed": true,
          "internalType": "address",
          "name": "owner",
          "type": "address"
        },
        {
          "indexed": true,
          "internalType": "address",
          "name": "approved",
          "type": "address"
        },
        {
          "indexed": true,
          "internalType": "uint256",
          "name": "tokenId",
          "type": "uint256"
        }
      ],
      "name": "Approval",
      "type": "event"
    },
    {
      "anonymous": false,
      "inputs": [
        {
          "indexed": true,
          "internalType": "address",
          "name": "owner",
          "type": "address"
        },
        {
          "indexed": true,
          "internalType": "address",
          "name": "operator",
          "type": "address"
        },
        {
          "indexed": false,
          "internalType": "bool",
          "name": "approved",
          "type": "bool"
        }
      ],
      "name": "ApprovalForAll",
      "type": "event"
    },
    {
      "anonymous": false,
      "inputs": [
        {
          "indexed": true,
          "internalType": "address",
          "name": "from",
          "type": "address"
        },
        {
          "indexed": true,
          "internalType": "address",
          "name": "to",
          "type": "address"
        },
        {
          "indexed": true,
          "internalType": "uint256",
          "name": "tokenId",
          "type": "uint256"
        }
      ],
      "name": "Transfer",
      "type": "event"
    },
    {
      "anonymous": false,
      "inputs": [
        {
          "indexed": true,
          "internalType": "uint256",
          "name": "tokenId",
          "type": "uint256"
        },
        {
          "indexed": false,
          "internalType": "address",
          "name": "seller",
          "type": "address"
        },
        {
          "indexed": false,
          "internalType": "address",
          "name": "owner",
          "type": "address"
        },
        {
          "indexed": false,
          "internalType": "uint256",
          "name": "price",
          "type": "uint256"
        },
        {
          "indexed": false,
          "internalType": "bool",
          "name": "sold",
          "type": "bool"
        }
      ],
      "name": "idMarketItemCreated",
      "type": "event"
    },
    {
      "inputs": [
        {
          "internalType": "address",
          "name": "to",
          "type": "address"
        },
        {
          "internalType": "uint256",
          "name": "tokenId",
          "type": "uint256"
        }
      ],
      "name": "approve",
      "outputs": [],
      "stateMutability": "nonpayable",
      "type": "function"
    },
    {
      "inputs": [
        {
          "internalType": "address",
          "name": "owner",
          "type": "address"
        }
      ],
      "name": "balanceOf",
      "outputs": [
        {
          "internalType": "uint256",
          "name": "",
          "type": "uint256"
        }
      ],
      "stateMutability": "view",
      "type": "function"
    },
    {
      "inputs": [
        {
          "internalType": "uint256",
          "name": "tokenId",
          "type": "uint256"
        }
      ],
      "name": "createMarketSale",
      "outputs": [],
      "stateMutability": "payable",
      "type": "function"
    },
    {
      "inputs": [
        {
          "internalType": "string",
          "name": "tokenURI",
          "type": "string"
        },
        {
          "internalType": "uint256",
          "name": "price",
          "type": "uint256"
        }
      ],
      "name": "createToken",
      "outputs": [
        {
          "internalType": "uint256",
          "name": "",
          "type": "uint256"
        }
      ],
      "stateMutability": "payable",
      "type": "function"
    },
    {
      "inputs": [
        {
          "internalType": "uint256",
          "name": "tokenId",
          "type": "uint256"
        }
      ],
      "name": "fetchItem",
      "outputs": [
        {
          "components": [
            {
              "internalType": "uint256",
              "name": "tokenId",
              "type": "uint256"
            },
            {
              "internalType": "address payable",
              "name": "seller",
              "type": "address"
            },
            {
              "internalType": "address payable",
              "name": "owner",
              "type": "address"
            },
            {
              "internalType": "uint256",
              "name": "price",
              "type": "uint256"
            },
            {
              "internalType": "bool",
              "name": "sold",
              "type": "bool"
            }
          ],
          "internalType": "struct NFTMarketplace.MarketItem",
          "name": "",
          "type": "tuple"
        }
      ],
      "stateMutability": "view",
      "type": "function"
    },
    {
      "inputs": [],
      "name": "fetchMarketItems",
      "outputs": [
        {
          "components": [
            {
              "internalType": "uint256",
              "name": "tokenId",
              "type": "uint256"
            },
            {
              "internalType": "address payable",
              "name": "seller",
              "type": "address"
            },
            {
              "internalType": "address payable",
              "name": "owner",
              "type": "address"
            },
            {
              "internalType": "uint256",
              "name": "price",
              "type": "uint256"
            },
            {
              "internalType": "bool",
              "name": "sold",
              "type": "bool"
            }
          ],
          "internalType": "struct NFTMarketplace.MarketItem[]",
          "name": "",
          "type": "tuple[]"
        }
      ],
      "stateMutability": "view",
      "type": "function"
    },
    {
      "inputs": [],
      "name": "fetchUserRelatedItems",
      "outputs": [
        {
          "components": [
            {
              "internalType": "uint256",
              "name": "tokenId",
              "type": "uint256"
            },
            {
              "internalType": "address payable",
              "name": "seller",
              "type": "address"
            },
            {
              "internalType": "address payable",
              "name": "owner",
              "type": "address"
            },
            {
              "internalType": "uint256",
              "name": "price",
              "type": "uint256"
            },
            {
              "internalType": "bool",
              "name": "sold",
              "type": "bool"
            }
          ],
          "internalType": "struct NFTMarketplace.MarketItem[]",
          "name": "",
          "type": "tuple[]"
        }
      ],
      "stateMutability": "view",
      "type": "function"
    },
    {
      "inputs": [
        {
          "internalType": "uint256",
          "name": "tokenId",
          "type": "uint256"
        }
      ],
      "name": "getApproved",
      "outputs": [
        {
          "internalType": "address",
          "name": "",
          "type": "address"
        }
      ],
      "stateMutability": "view",
      "type": "function"
    },
    {
      "inputs": [],
      "name": "getListingPrice",
      "outputs": [
        {
          "internalType": "uint256",
          "name": "",
          "type": "uint256"
        }
      ],
      "stateMutability": "view",
      "type": "function"
    },
    {
      "inputs": [
        {
          "internalType": "address",
          "name": "owner",
          "type": "address"
        },
        {
          "internalType": "address",
          "name": "operator",
          "type": "address"
        }
      ],
      "name": "isApprovedForAll",
      "outputs": [
        {
          "internalType": "bool",
          "name": "",
          "type": "bool"
        }
      ],
      "stateMutability": "view",
      "type": "function"
    },
    {
      "inputs": [],
      "name": "name",
      "outputs": [
        {
          "internalType": "string",
          "name": "",
          "type": "string"
        }
      ],
      "stateMutability": "view",
      "type": "function"
    },
    {
      "inputs": [
        {
          "internalType": "uint256",
          "name": "tokenId",
          "type": "uint256"
        }
      ],
      "name": "ownerOf",
      "outputs": [
        {
          "internalType": "address",
          "name": "",
          "type": "address"
        }
      ],
      "stateMutability": "view",
      "type": "function"
    },
    {
      "inputs": [
        {
          "internalType": "uint256",
          "name": "tokenId",
          "type": "uint256"
        },
        {
          "internalType": "uint256",
          "name": "price",
          "type": "uint256"
        }
      ],
      "name": "reSellToken",
      "outputs": [],
      "stateMutability": "payable",
      "type": "function"
    },
    {
      "inputs": [
        {
          "internalType": "address",
          "name": "from",
          "type": "address"
        },
        {
          "internalType": "address",
          "name": "to",
          "type": "address"
        },
        {
          "internalType": "uint256",
          "name": "tokenId",
          "type": "uint256"
        }
      ],
      "name": "safeTransferFrom",
      "outputs": [],
      "stateMutability": "nonpayable",
      "type": "function"
    },
    {
      "inputs": [
        {
          "internalType": "address",
          "name": "from",
          "type": "address"
        },
        {
          "internalType": "address",
          "name": "to",
          "type": "address"
        },
        {
          "internalType": "uint256",
          "name": "tokenId",
          "type": "uint256"
        },
        {
          "internalType": "bytes",
          "name": "data",
          "type": "bytes"
        }
      ],
      "name": "safeTransferFrom",
      "outputs": [],
      "stateMutability": "nonpayable",
      "type": "function"
    },
    {
      "inputs": [
        {
          "internalType": "address",
          "name": "operator",
          "type": "address"
        },
        {
          "internalType": "bool",
          "name": "approved",
          "type": "bool"
        }
      ],
      "name": "setApprovalForAll",
      "outputs": [],
      "stateMutability": "nonpayable",
      "type": "function"
    },
    {
      "inputs": [
        {
          "internalType": "bytes4",
          "name": "interfaceId",
          "type": "bytes4"
        }
      ],
      "name": "supportsInterface",
      "outputs": [
        {
          "internalType": "bool",
          "name": "",
          "type": "bool"
        }
      ],
      "stateMutability": "view",
      "type": "function"
    },
    {
      "inputs": [],
      "name": "symbol",
      "outputs": [
        {
          "internalType": "string",
          "name": "",
          "type": "string"
        }
      ],
      "stateMutability": "view",
      "type": "function"
    },
    {
      "inputs": [
        {
          "internalType": "uint256",
          "name": "tokenId",
          "type": "uint256"
        }
      ],
      "name": "tokenURI",
      "outputs": [
        {
          "internalType": "string",
          "name": "",
          "type": "string"
        }
      ],
      "stateMutability": "view",
      "type": "function"
    },
    {
      "inputs": [
        {
          "internalType": "address",
          "name": "from",
          "type": "address"
        },
        {
          "internalType": "address",
          "name": "to",
          "type": "address"
        },
        {
          "internalType": "uint256",
          "name": "tokenId",
          "type": "uint256"
        }
      ],
      "name": "transferFrom",
      "outputs": [],
      "stateMutability": "nonpayable",
      "type": "function"
    },
    {
      "inputs": [
        {
          "internalType": "uint256",
          "name": "_listingPrice",
          "type": "uint256"
        }
      ],
      "name": "updateListingPrice",
      "outputs": [],
      "stateMutability": "payable",
      "type": "function"
    }
  ],
  "bytecode": "0x60806040526605543df729c00060095534801561001b57600080fd5b506040518060400160405280601381526020017f4e4654204d455441564552534520546f6b656e000000000000000000000000008152506040518060400160405280600581526020017f4d594e465400000000000000000000000000000000000000000000000000000081525081600090816100979190610340565b5080600190816100a79190610340565b50505033600a60006101000a81548173ffffffffffffffffffffffffffffffffffffffff021916908373ffffffffffffffffffffffffffffffffffffffff160217905550610412565b600081519050919050565b7f4e487b7100000000000000000000000000000000000000000000000000000000600052604160045260246000fd5b7f4e487b7100000000000000000000000000000000000000000000000000000000600052602260045260246000fd5b6000600282049050600182168061017157607f821691505b6020821081036101845761018361012a565b5b50919050565b60008190508160005260206000209050919050565b60006020601f8301049050919050565b600082821b905092915050565b6000600883026101ec7fffffffffffffffffffffffffffffffffffffffffffffffffffffffffffffffff826101af565b6101f686836101af565b95508019841693508086168417925050509392505050565b6000819050919050565b6000819050919050565b600061023d6102386102338461020e565b610218565b61020e565b9050919050565b6000819050919050565b61025783610222565b61026b61026382610244565b8484546101bc565b825550505050565b600090565b610280610273565b61028b81848461024e565b505050565b5b818110156102af576102a4600082610278565b600181019050610291565b5050565b601f8211156102f4576102c58161018a565b6102ce8461019f565b810160208510156102dd578190505b6102f16102e98561019f565b830182610290565b50505b505050565b600082821c905092915050565b6000610317600019846008026102f9565b1980831691505092915050565b60006103308383610306565b9150826002028217905092915050565b610349826100f0565b67ffffffffffffffff811115610362576103616100fb565b5b61036c8254610159565b6103778282856102b3565b600060209050601f8311600181146103aa5760008415610398578287015190505b6103a28582610324565b86555061040a565b601f1984166103b88661018a565b60005b828110156103e0578489015182556001820191506020850194506020810190506103bb565b868310156103fd57848901516103f9601f891682610306565b8355505b6001600288020188555050505b505050505050565b6140d4806104216000396000f3fe60806040526004361061012a5760003560e01c806370a08231116100ab578063ad4b9cfb1161006f578063ad4b9cfb146103ea578063ae677aa314610427578063b88d4fde14610443578063be9af5361461046c578063c87b56dd14610488578063e985e9c5146104c55761012a565b806370a082311461030d57806372b3b6201461034a57806385535b251461037a57806395d89b4114610396578063a22cb465146103c15761012a565b806312e85585116100f257806312e855851461022857806323b872dd1461025357806325da9e5e1461027c57806342842e0e146102a75780636352211e146102d05761012a565b806301ffc9a71461012f57806306fdde031461016c578063081812fc14610197578063095ea7b3146101d45780630f08efe0146101fd575b600080fd5b34801561013b57600080fd5b5061015660048036038101906101519190612801565b610502565b6040516101639190612849565b60405180910390f35b34801561017857600080fd5b506101816105e4565b60405161018e91906128f4565b60405180910390f35b3480156101a357600080fd5b506101be60048036038101906101b9919061294c565b610676565b6040516101cb91906129ba565b60405180910390f35b3480156101e057600080fd5b506101fb60048036038101906101f69190612a01565b6106bc565b005b34801561020957600080fd5b506102126107d3565b60405161021f9190612b97565b60405180910390f35b34801561023457600080fd5b5061023d610a20565b60405161024a9190612bc8565b60405180910390f35b34801561025f57600080fd5b5061027a60048036038101906102759190612be3565b610a2a565b005b34801561028857600080fd5b50610291610a8a565b60405161029e9190612b97565b60405180910390f35b3480156102b357600080fd5b506102ce60048036038101906102c99190612be3565b610dfc565b005b3480156102dc57600080fd5b506102f760048036038101906102f2919061294c565b610e1c565b60405161030491906129ba565b60405180910390f35b34801561031957600080fd5b50610334600480360381019061032f9190612c36565b610ecd565b6040516103419190612bc8565b60405180910390f35b610364600480360381019061035f9190612d98565b610f84565b6040516103719190612bc8565b60405180910390f35b610394600480360381019061038f9190612df4565b610fc6565b005b3480156103a257600080fd5b506103ab6111bb565b6040516103b891906128f4565b60405180910390f35b3480156103cd57600080fd5b506103e860048036038101906103e39190612e60565b61124d565b005b3480156103f657600080fd5b50610411600480360381019061040c919061294c565b611263565b60405161041e9190612f08565b60405180910390f35b610441600480360381019061043c919061294c565b6113b3565b005b34801561044f57600080fd5b5061046a60048036038101906104659190612fc4565b61144d565b005b6104866004803603810190610481919061294c565b6114af565b005b34801561049457600080fd5b506104af60048036038101906104aa919061294c565b611691565b6040516104bc91906128f4565b60405180910390f35b3480156104d157600080fd5b506104ec60048036038101906104e79190613047565b6117a3565b6040516104f99190612849565b60405180910390f35b60007f80ac58cd000000000000000000000000000000000000000000000000000000007bffffffffffffffffffffffffffffffffffffffffffffffffffffffff1916827bffffffffffffffffffffffffffffffffffffffffffffffffffffffff191614806105cd57507f5b5e139f000000000000000000000000000000000000000000000000000000007bffffffffffffffffffffffffffffffffffffffffffffffffffffffff1916827bffffffffffffffffffffffffffffffffffffffffffffffffffffffff1916145b806105dd57506105dc82611837565b5b9050919050565b6060600080546105f3906130b6565b80601f016020809104026020016040519081016040528092919081815260200182805461061f906130b6565b801561066c5780601f106106415761010080835404028352916020019161066c565b820191906000526020600020905b81548152906001019060200180831161064f57829003601f168201915b5050505050905090565b6000610681826118a1565b6004600083815260200190815260200160002060009054906101000a900473ffffffffffffffffffffffffffffffffffffffff169050919050565b60006106c782610e1c565b90508073ffffffffffffffffffffffffffffffffffffffff168373ffffffffffffffffffffffffffffffffffffffff1603610737576040517f08c379a000000000000000000000000000000000000000000000000000000000815260040161072e90613159565b60405180910390fd5b8073ffffffffffffffffffffffffffffffffffffffff166107566118ec565b73ffffffffffffffffffffffffffffffffffffffff16148061078557506107848161077f6118ec565b6117a3565b5b6107c4576040517f08c379a00000000000000000000000000000000000000000000000000000000081526004016107bb906131eb565b60405180910390fd5b6107ce83836118f4565b505050565b606060006107e160076119ad565b905060006107ef60086119ad565b826107fa919061323a565b90506000808267ffffffffffffffff81111561081957610818612c6d565b5b60405190808252806020026020018201604052801561085257816020015b61083f612738565b8152602001906001900390816108375790505b50905060005b84811015610a1557600081600161086f919061326e565b90503073ffffffffffffffffffffffffffffffffffffffff16600b600083815260200190815260200160002060020160009054906101000a900473ffffffffffffffffffffffffffffffffffffffff1673ffffffffffffffffffffffffffffffffffffffff1603610a07576000600b60008381526020019081526020016000209050806040518060a0016040529081600082015481526020016001820160009054906101000a900473ffffffffffffffffffffffffffffffffffffffff1673ffffffffffffffffffffffffffffffffffffffff1673ffffffffffffffffffffffffffffffffffffffff1681526020016002820160009054906101000a900473ffffffffffffffffffffffffffffffffffffffff1673ffffffffffffffffffffffffffffffffffffffff1673ffffffffffffffffffffffffffffffffffffffff168152602001600382015481526020016004820160009054906101000a900460ff1615151515815250508486815181106109eb576109ea6132a2565b5b6020026020010181905250600185610a03919061326e565b9450505b508080600101915050610858565b508094505050505090565b6000600954905090565b610a3b610a356118ec565b826119bb565b610a7a576040517f08c379a0000000000000000000000000000000000000000000000000000000008152600401610a7190613343565b60405180910390fd5b610a85838383611a50565b505050565b60606000610a9860076119ad565b90506000806000600190505b838111610b98576000600b600083815260200190815260200160002090503373ffffffffffffffffffffffffffffffffffffffff168160020160009054906101000a900473ffffffffffffffffffffffffffffffffffffffff1673ffffffffffffffffffffffffffffffffffffffff161480610b6f57503373ffffffffffffffffffffffffffffffffffffffff168160010160009054906101000a900473ffffffffffffffffffffffffffffffffffffffff1673ffffffffffffffffffffffffffffffffffffffff16145b15610b8457600184610b81919061326e565b93505b508080610b9090613363565b915050610aa4565b5060008267ffffffffffffffff811115610bb557610bb4612c6d565b5b604051908082528060200260200182016040528015610bee57816020015b610bdb612738565b815260200190600190039081610bd35790505b5090506000600190505b848111610df1576000600b600083815260200190815260200160002090503373ffffffffffffffffffffffffffffffffffffffff168160020160009054906101000a900473ffffffffffffffffffffffffffffffffffffffff1673ffffffffffffffffffffffffffffffffffffffff161480610cc357503373ffffffffffffffffffffffffffffffffffffffff168160010160009054906101000a900473ffffffffffffffffffffffffffffffffffffffff1673ffffffffffffffffffffffffffffffffffffffff16145b15610ddd57806040518060a0016040529081600082015481526020016001820160009054906101000a900473ffffffffffffffffffffffffffffffffffffffff1673ffffffffffffffffffffffffffffffffffffffff1673ffffffffffffffffffffffffffffffffffffffff1681526020016002820160009054906101000a900473ffffffffffffffffffffffffffffffffffffffff1673ffffffffffffffffffffffffffffffffffffffff1673ffffffffffffffffffffffffffffffffffffffff168152602001600382015481526020016004820160009054906101000a900460ff161515151581525050838581518110610dc257610dc16132a2565b5b6020026020010181905250600184610dda919061326e565b93505b508080610de990613363565b915050610bf8565b508094505050505090565b610e178383836040518060200160405280600081525061144d565b505050565b6000806002600084815260200190815260200160002060009054906101000a900473ffffffffffffffffffffffffffffffffffffffff169050600073ffffffffffffffffffffffffffffffffffffffff168173ffffffffffffffffffffffffffffffffffffffff1603610ec4576040517f08c379a0000000000000000000000000000000000000000000000000000000008152600401610ebb906133f7565b60405180910390fd5b80915050919050565b60008073ffffffffffffffffffffffffffffffffffffffff168273ffffffffffffffffffffffffffffffffffffffff1603610f3d576040517f08c379a0000000000000000000000000000000000000000000000000000000008152600401610f3490613489565b60405180910390fd5b600360008373ffffffffffffffffffffffffffffffffffffffff1673ffffffffffffffffffffffffffffffffffffffff168152602001908152602001600020549050919050565b6000610f906007611cb6565b6000610f9c60076119ad565b9050610fa83382611ccc565b610fb28185611ea5565b610fbc8184611f12565b8091505092915050565b3373ffffffffffffffffffffffffffffffffffffffff16600b600084815260200190815260200160002060020160009054906101000a900473ffffffffffffffffffffffffffffffffffffffff1673ffffffffffffffffffffffffffffffffffffffff161461106a576040517f08c379a00000000000000000000000000000000000000000000000000000000081526004016110619061351b565b60405180910390fd5b60095434146110ae576040517f08c379a00000000000000000000000000000000000000000000000000000000081526004016110a5906135ad565b60405180910390fd5b6000600b600084815260200190815260200160002060040160006101000a81548160ff02191690831515021790555080600b60008481526020019081526020016000206003018190555033600b600084815260200190815260200160002060010160006101000a81548173ffffffffffffffffffffffffffffffffffffffff021916908373ffffffffffffffffffffffffffffffffffffffff16021790555030600b600084815260200190815260200160002060020160006101000a81548173ffffffffffffffffffffffffffffffffffffffff021916908373ffffffffffffffffffffffffffffffffffffffff1602179055506111ac6008612115565b6111b7333084611a50565b5050565b6060600180546111ca906130b6565b80601f01602080910402602001604051908101604052809291908181526020018280546111f6906130b6565b80156112435780601f1061121857610100808354040283529160200191611243565b820191906000526020600020905b81548152906001019060200180831161122657829003601f168201915b5050505050905090565b61125f6112586118ec565b8383612171565b5050565b61126b612738565b611274826122dd565b6112b3576040517f08c379a00000000000000000000000000000000000000000000000000000000081526004016112aa90613619565b60405180910390fd5b600b60008381526020019081526020016000206040518060a0016040529081600082015481526020016001820160009054906101000a900473ffffffffffffffffffffffffffffffffffffffff1673ffffffffffffffffffffffffffffffffffffffff1673ffffffffffffffffffffffffffffffffffffffff1681526020016002820160009054906101000a900473ffffffffffffffffffffffffffffffffffffffff1673ffffffffffffffffffffffffffffffffffffffff1673ffffffffffffffffffffffffffffffffffffffff168152602001600382015481526020016004820160009054906101000a900460ff1615151515815250509050919050565b600a60009054906101000a900473ffffffffffffffffffffffffffffffffffffffff1673ffffffffffffffffffffffffffffffffffffffff163373ffffffffffffffffffffffffffffffffffffffff1614611443576040517f08c379a000000000000000000000000000000000000000000000000000000000815260040161143a90613685565b60405180910390fd5b8060098190555050565b61145e6114586118ec565b836119bb565b61149d576040517f08c379a000000000000000000000000000000000000000000000000000000000815260040161149490613343565b60405180910390fd5b6114a984848484612349565b50505050565b6000600b600083815260200190815260200160002060030154905080341461150c576040517f08c379a000000000000000000000000000000000000000000000000000000000815260040161150390613717565b60405180910390fd5b33600b600084815260200190815260200160002060020160006101000a81548173ffffffffffffffffffffffffffffffffffffffff021916908373ffffffffffffffffffffffffffffffffffffffff1602179055506001600b600084815260200190815260200160002060040160006101000a81548160ff02191690831515021790555061159a6008611cb6565b6115a5303384611a50565b600a60009054906101000a900473ffffffffffffffffffffffffffffffffffffffff1673ffffffffffffffffffffffffffffffffffffffff166108fc6009549081150290604051600060405180830381858888f1935050505015801561160f573d6000803e3d6000fd5b50600b600083815260200190815260200160002060010160009054906101000a900473ffffffffffffffffffffffffffffffffffffffff1673ffffffffffffffffffffffffffffffffffffffff166108fc349081150290604051600060405180830381858888f1935050505015801561168c573d6000803e3d6000fd5b505050565b606061169c826118a1565b60006006600084815260200190815260200160002080546116bc906130b6565b80601f01602080910402602001604051908101604052809291908181526020018280546116e8906130b6565b80156117355780601f1061170a57610100808354040283529160200191611735565b820191906000526020600020905b81548152906001019060200180831161171857829003601f168201915b5050505050905060006117466123a5565b9050600081510361175b57819250505061179e565b600082511115611790578082604051602001611778929190613773565b6040516020818303038152906040529250505061179e565b611799846123bc565b925050505b919050565b6000600560008473ffffffffffffffffffffffffffffffffffffffff1673ffffffffffffffffffffffffffffffffffffffff16815260200190815260200160002060008373ffffffffffffffffffffffffffffffffffffffff1673ffffffffffffffffffffffffffffffffffffffff16815260200190815260200160002060009054906101000a900460ff16905092915050565b60007f01ffc9a7000000000000000000000000000000000000000000000000000000007bffffffffffffffffffffffffffffffffffffffffffffffffffffffff1916827bffffffffffffffffffffffffffffffffffffffffffffffffffffffff1916149050919050565b6118aa816122dd565b6118e9576040517f08c379a00000000000000000000000000000000000000000000000000000000081526004016118e0906133f7565b60405180910390fd5b50565b600033905090565b816004600083815260200190815260200160002060006101000a81548173ffffffffffffffffffffffffffffffffffffffff021916908373ffffffffffffffffffffffffffffffffffffffff160217905550808273ffffffffffffffffffffffffffffffffffffffff1661196783610e1c565b73ffffffffffffffffffffffffffffffffffffffff167f8c5be1e5ebec7d5bd14f71427d1e84f3dd0314c0f7b2291e5b200ac8c7c3b92560405160405180910390a45050565b600081600001549050919050565b6000806119c783610e1c565b90508073ffffffffffffffffffffffffffffffffffffffff168473ffffffffffffffffffffffffffffffffffffffff161480611a095750611a0881856117a3565b5b80611a4757508373ffffffffffffffffffffffffffffffffffffffff16611a2f84610676565b73ffffffffffffffffffffffffffffffffffffffff16145b91505092915050565b8273ffffffffffffffffffffffffffffffffffffffff16611a7082610e1c565b73ffffffffffffffffffffffffffffffffffffffff1614611ac6576040517f08c379a0000000000000000000000000000000000000000000000000000000008152600401611abd90613809565b60405180910390fd5b600073ffffffffffffffffffffffffffffffffffffffff168273ffffffffffffffffffffffffffffffffffffffff1603611b35576040517f08c379a0000000000000000000000000000000000000000000000000000000008152600401611b2c9061389b565b60405180910390fd5b611b40838383612424565b611b4b6000826118f4565b6001600360008573ffffffffffffffffffffffffffffffffffffffff1673ffffffffffffffffffffffffffffffffffffffff1681526020019081526020016000206000828254611b9b919061323a565b925050819055506001600360008473ffffffffffffffffffffffffffffffffffffffff1673ffffffffffffffffffffffffffffffffffffffff1681526020019081526020016000206000828254611bf2919061326e565b92505081905550816002600083815260200190815260200160002060006101000a81548173ffffffffffffffffffffffffffffffffffffffff021916908373ffffffffffffffffffffffffffffffffffffffff160217905550808273ffffffffffffffffffffffffffffffffffffffff168473ffffffffffffffffffffffffffffffffffffffff167fddf252ad1be2c89b69c2b068fc378daa952ba7f163c4a11628f55a4df523b3ef60405160405180910390a4611cb1838383612429565b505050565b6001816000016000828254019250508190555050565b600073ffffffffffffffffffffffffffffffffffffffff168273ffffffffffffffffffffffffffffffffffffffff1603611d3b576040517f08c379a0000000000000000000000000000000000000000000000000000000008152600401611d3290613907565b60405180910390fd5b611d44816122dd565b15611d84576040517f08c379a0000000000000000000000000000000000000000000000000000000008152600401611d7b90613973565b60405180910390fd5b611d9060008383612424565b6001600360008473ffffffffffffffffffffffffffffffffffffffff1673ffffffffffffffffffffffffffffffffffffffff1681526020019081526020016000206000828254611de0919061326e565b92505081905550816002600083815260200190815260200160002060006101000a81548173ffffffffffffffffffffffffffffffffffffffff021916908373ffffffffffffffffffffffffffffffffffffffff160217905550808273ffffffffffffffffffffffffffffffffffffffff16600073ffffffffffffffffffffffffffffffffffffffff167fddf252ad1be2c89b69c2b068fc378daa952ba7f163c4a11628f55a4df523b3ef60405160405180910390a4611ea160008383612429565b5050565b611eae826122dd565b611eed576040517f08c379a0000000000000000000000000000000000000000000000000000000008152600401611ee490613a05565b60405180910390fd5b80600660008481526020019081526020016000209081611f0d9190613bd1565b505050565b60008111611f55576040517f08c379a0000000000000000000000000000000000000000000000000000000008152600401611f4c90613cef565b60405180910390fd5b6009543414611f99576040517f08c379a0000000000000000000000000000000000000000000000000000000008152600401611f9090613d5b565b60405180910390fd5b6040518060a001604052808381526020013373ffffffffffffffffffffffffffffffffffffffff1681526020013073ffffffffffffffffffffffffffffffffffffffff16815260200182815260200160001515815250600b60008481526020019081526020016000206000820151816000015560208201518160010160006101000a81548173ffffffffffffffffffffffffffffffffffffffff021916908373ffffffffffffffffffffffffffffffffffffffff16021790555060408201518160020160006101000a81548173ffffffffffffffffffffffffffffffffffffffff021916908373ffffffffffffffffffffffffffffffffffffffff1602179055506060820151816003015560808201518160040160006101000a81548160ff0219169083151502179055509050506120d2333084611a50565b817fdebdb32cb5230ab727c9c361b16fdb2015df225c10e6a3e7f60ecd5dc5be451633308460006040516121099493929190613d7b565b60405180910390a25050565b60008160000154905060008111612161576040517f08c379a000000000000000000000000000000000000000000000000000000000815260040161215890613e0c565b60405180910390fd5b6001810382600001819055505050565b8173ffffffffffffffffffffffffffffffffffffffff168373ffffffffffffffffffffffffffffffffffffffff16036121df576040517f08c379a00000000000000000000000000000000000000000000000000000000081526004016121d690613e78565b60405180910390fd5b80600560008573ffffffffffffffffffffffffffffffffffffffff1673ffffffffffffffffffffffffffffffffffffffff16815260200190815260200160002060008473ffffffffffffffffffffffffffffffffffffffff1673ffffffffffffffffffffffffffffffffffffffff16815260200190815260200160002060006101000a81548160ff0219169083151502179055508173ffffffffffffffffffffffffffffffffffffffff168373ffffffffffffffffffffffffffffffffffffffff167f17307eab39ab6107e8899845ad3d59bd9653f200f220920489ca2b5937696c31836040516122d09190612849565b60405180910390a3505050565b60008073ffffffffffffffffffffffffffffffffffffffff166002600084815260200190815260200160002060009054906101000a900473ffffffffffffffffffffffffffffffffffffffff1673ffffffffffffffffffffffffffffffffffffffff1614159050919050565b612354848484611a50565b6123608484848461242e565b61239f576040517f08c379a000000000000000000000000000000000000000000000000000000000815260040161239690613f0a565b60405180910390fd5b50505050565b606060405180602001604052806000815250905090565b60606123c7826118a1565b60006123d16123a5565b905060008151116123f1576040518060200160405280600081525061241c565b806123fb846125b5565b60405160200161240c929190613773565b6040516020818303038152906040525b915050919050565b505050565b505050565b600061244f8473ffffffffffffffffffffffffffffffffffffffff16612715565b156125a8578373ffffffffffffffffffffffffffffffffffffffff1663150b7a026124786118ec565b8786866040518563ffffffff1660e01b815260040161249a9493929190613f7f565b6020604051808303816000875af19250505080156124d657506040513d601f19601f820116820180604052508101906124d39190613fe0565b60015b612558573d8060008114612506576040519150601f19603f3d011682016040523d82523d6000602084013e61250b565b606091505b506000815103612550576040517f08c379a000000000000000000000000000000000000000000000000000000000815260040161254790613f0a565b60405180910390fd5b805181602001fd5b63150b7a0260e01b7bffffffffffffffffffffffffffffffffffffffffffffffffffffffff1916817bffffffffffffffffffffffffffffffffffffffffffffffffffffffff1916149150506125ad565b600190505b949350505050565b6060600082036125fc576040518060400160405280600181526020017f30000000000000000000000000000000000000000000000000000000000000008152509050612710565b600082905060005b6000821461262e57808061261790613363565b915050600a82612627919061403c565b9150612604565b60008167ffffffffffffffff81111561264a57612649612c6d565b5b6040519080825280601f01601f19166020018201604052801561267c5781602001600182028036833780820191505090505b5090505b6000851461270957600182612695919061323a565b9150600a856126a4919061406d565b60306126b0919061326e565b60f81b8183815181106126c6576126c56132a2565b5b60200101907effffffffffffffffffffffffffffffffffffffffffffffffffffffffffffff1916908160001a905350600a85612702919061403c565b9450612680565b8093505050505b919050565b6000808273ffffffffffffffffffffffffffffffffffffffff163b119050919050565b6040518060a0016040528060008152602001600073ffffffffffffffffffffffffffffffffffffffff168152602001600073ffffffffffffffffffffffffffffffffffffffff168152602001600081526020016000151581525090565b6000604051905090565b600080fd5b600080fd5b60007fffffffff0000000000000000000000000000000000000000000000000000000082169050919050565b6127de816127a9565b81146127e957600080fd5b50565b6000813590506127fb816127d5565b92915050565b6000602082840312156128175761281661279f565b5b6000612825848285016127ec565b91505092915050565b60008115159050919050565b6128438161282e565b82525050565b600060208201905061285e600083018461283a565b92915050565b600081519050919050565b600082825260208201905092915050565b60005b8381101561289e578082015181840152602081019050612883565b60008484015250505050565b6000601f19601f8301169050919050565b60006128c682612864565b6128d0818561286f565b93506128e0818560208601612880565b6128e9816128aa565b840191505092915050565b6000602082019050818103600083015261290e81846128bb565b905092915050565b6000819050919050565b61292981612916565b811461293457600080fd5b50565b60008135905061294681612920565b92915050565b6000602082840312156129625761296161279f565b5b600061297084828501612937565b91505092915050565b600073ffffffffffffffffffffffffffffffffffffffff82169050919050565b60006129a482612979565b9050919050565b6129b481612999565b82525050565b60006020820190506129cf60008301846129ab565b92915050565b6129de81612999565b81146129e957600080fd5b50565b6000813590506129fb816129d5565b92915050565b60008060408385031215612a1857612a1761279f565b5b6000612a26858286016129ec565b9250506020612a3785828601612937565b9150509250929050565b600081519050919050565b600082825260208201905092915050565b6000819050602082019050919050565b612a7681612916565b82525050565b6000612a8782612979565b9050919050565b612a9781612a7c565b82525050565b612aa68161282e565b82525050565b60a082016000820151612ac26000850182612a6d565b506020820151612ad56020850182612a8e565b506040820151612ae86040850182612a8e565b506060820151612afb6060850182612a6d565b506080820151612b0e6080850182612a9d565b50505050565b6000612b208383612aac565b60a08301905092915050565b6000602082019050919050565b6000612b4482612a41565b612b4e8185612a4c565b9350612b5983612a5d565b8060005b83811015612b8a578151612b718882612b14565b9750612b7c83612b2c565b925050600181019050612b5d565b5085935050505092915050565b60006020820190508181036000830152612bb18184612b39565b905092915050565b612bc281612916565b82525050565b6000602082019050612bdd6000830184612bb9565b92915050565b600080600060608486031215612bfc57612bfb61279f565b5b6000612c0a868287016129ec565b9350506020612c1b868287016129ec565b9250506040612c2c86828701612937565b9150509250925092565b600060208284031215612c4c57612c4b61279f565b5b6000612c5a848285016129ec565b91505092915050565b600080fd5b600080fd5b7f4e487b7100000000000000000000000000000000000000000000000000000000600052604160045260246000fd5b612ca5826128aa565b810181811067ffffffffffffffff82111715612cc457612cc3612c6d565b5b80604052505050565b6000612cd7612795565b9050612ce38282612c9c565b919050565b600067ffffffffffffffff821115612d0357612d02612c6d565b5b612d0c826128aa565b9050602081019050919050565b82818337600083830152505050565b6000612d3b612d3684612ce8565b612ccd565b905082815260208101848484011115612d5757612d56612c68565b5b612d62848285612d19565b509392505050565b600082601f830112612d7f57612d7e612c63565b5b8135612d8f848260208601612d28565b91505092915050565b60008060408385031215612daf57612dae61279f565b5b600083013567ffffffffffffffff811115612dcd57612dcc6127a4565b5b612dd985828601612d6a565b9250506020612dea85828601612937565b9150509250929050565b60008060408385031215612e0b57612e0a61279f565b5b6000612e1985828601612937565b9250506020612e2a85828601612937565b9150509250929050565b612e3d8161282e565b8114612e4857600080fd5b50565b600081359050612e5a81612e34565b92915050565b60008060408385031215612e7757612e7661279f565b5b6000612e85858286016129ec565b9250506020612e9685828601612e4b565b9150509250929050565b60a082016000820151612eb66000850182612a6d565b506020820151612ec96020850182612a8e565b506040820151612edc6040850182612a8e565b506060820151612eef6060850182612a6d565b506080820151612f026080850182612a9d565b50505050565b600060a082019050612f1d6000830184612ea0565b92915050565b600067ffffffffffffffff821115612f3e57612f3d612c6d565b5b612f47826128aa565b9050602081019050919050565b6000612f67612f6284612f23565b612ccd565b905082815260208101848484011115612f8357612f82612c68565b5b612f8e848285612d19565b509392505050565b600082601f830112612fab57612faa612c63565b5b8135612fbb848260208601612f54565b91505092915050565b60008060008060808587031215612fde57612fdd61279f565b5b6000612fec878288016129ec565b9450506020612ffd878288016129ec565b935050604061300e87828801612937565b925050606085013567ffffffffffffffff81111561302f5761302e6127a4565b5b61303b87828801612f96565b91505092959194509250565b6000806040838503121561305e5761305d61279f565b5b600061306c858286016129ec565b925050602061307d858286016129ec565b9150509250929050565b7f4e487b7100000000000000000000000000000000000000000000000000000000600052602260045260246000fd5b600060028204905060018216806130ce57607f821691505b6020821081036130e1576130e0613087565b5b50919050565b7f4552433732313a20617070726f76616c20746f2063757272656e74206f776e6560008201527f7200000000000000000000000000000000000000000000000000000000000000602082015250565b600061314360218361286f565b915061314e826130e7565b604082019050919050565b6000602082019050818103600083015261317281613136565b9050919050565b7f4552433732313a20617070726f76652063616c6c6572206973206e6f7420746f60008201527f6b656e206f776e6572206e6f7220617070726f76656420666f7220616c6c0000602082015250565b60006131d5603e8361286f565b91506131e082613179565b604082019050919050565b60006020820190508181036000830152613204816131c8565b9050919050565b7f4e487b7100000000000000000000000000000000000000000000000000000000600052601160045260246000fd5b600061324582612916565b915061325083612916565b92508282039050818111156132685761326761320b565b5b92915050565b600061327982612916565b915061328483612916565b925082820190508082111561329c5761329b61320b565b5b92915050565b7f4e487b7100000000000000000000000000000000000000000000000000000000600052603260045260246000fd5b7f4552433732313a2063616c6c6572206973206e6f7420746f6b656e206f776e6560008201527f72206e6f7220617070726f766564000000000000000000000000000000000000602082015250565b600061332d602e8361286f565b9150613338826132d1565b604082019050919050565b6000602082019050818103600083015261335c81613320565b9050919050565b600061336e82612916565b91507fffffffffffffffffffffffffffffffffffffffffffffffffffffffffffffffff82036133a05761339f61320b565b5b600182019050919050565b7f4552433732313a20696e76616c696420746f6b656e2049440000000000000000600082015250565b60006133e160188361286f565b91506133ec826133ab565b602082019050919050565b60006020820190508181036000830152613410816133d4565b9050919050565b7f4552433732313a2061646472657373207a65726f206973206e6f74206120766160008201527f6c6964206f776e65720000000000000000000000000000000000000000000000602082015250565b600061347360298361286f565b915061347e82613417565b604082019050919050565b600060208201905081810360008301526134a281613466565b9050919050565b7f4f6e6c79204974656d206f776e65722063616e20706572666f726d207468697360008201527f206f7065726174696f6e00000000000000000000000000000000000000000000602082015250565b6000613505602a8361286f565b9150613510826134a9565b604082019050919050565b60006020820190508181036000830152613534816134f8565b9050919050565b7f5072696365206d75737420626520657175616c20746f206c697374696e67207060008201527f7269636500000000000000000000000000000000000000000000000000000000602082015250565b600061359760248361286f565b91506135a28261353b565b604082019050919050565b600060208201905081810360008301526135c68161358a565b9050919050565b7f4974656d20646f6573206e6f7420657869737400000000000000000000000000600082015250565b600061360360138361286f565b915061360e826135cd565b602082019050919050565b60006020820190508181036000830152613632816135f6565b9050919050565b7f6f6e6c79206f776e65722063616e20646f207468697300000000000000000000600082015250565b600061366f60168361286f565b915061367a82613639565b602082019050919050565b6000602082019050818103600083015261369e81613662565b9050919050565b7f5072696365206d75737420626520657175616c20746f2061736b696e6720707260008201527f6963650000000000000000000000000000000000000000000000000000000000602082015250565b600061370160238361286f565b915061370c826136a5565b604082019050919050565b60006020820190508181036000830152613730816136f4565b9050919050565b600081905092915050565b600061374d82612864565b6137578185613737565b9350613767818560208601612880565b80840191505092915050565b600061377f8285613742565b915061378b8284613742565b91508190509392505050565b7f4552433732313a207472616e736665722066726f6d20696e636f72726563742060008201527f6f776e6572000000000000000000000000000000000000000000000000000000602082015250565b60006137f360258361286f565b91506137fe82613797565b604082019050919050565b60006020820190508181036000830152613822816137e6565b9050919050565b7f4552433732313a207472616e7366657220746f20746865207a65726f2061646460008201527f7265737300000000000000000000000000000000000000000000000000000000602082015250565b600061388560248361286f565b915061389082613829565b604082019050919050565b600060208201905081810360008301526138b481613878565b9050919050565b7f4552433732313a206d696e7420746f20746865207a65726f2061646472657373600082015250565b60006138f160208361286f565b91506138fc826138bb565b602082019050919050565b60006020820190508181036000830152613920816138e4565b9050919050565b7f4552433732313a20746f6b656e20616c7265616479206d696e74656400000000600082015250565b600061395d601c8361286f565b915061396882613927565b602082019050919050565b6000602082019050818103600083015261398c81613950565b9050919050565b7f45524337323155524953746f726167653a2055524920736574206f66206e6f6e60008201527f6578697374656e7420746f6b656e000000000000000000000000000000000000602082015250565b60006139ef602e8361286f565b91506139fa82613993565b604082019050919050565b60006020820190508181036000830152613a1e816139e2565b9050919050565b60008190508160005260206000209050919050565b60006020601f8301049050919050565b600082821b905092915050565b600060088302613a877fffffffffffffffffffffffffffffffffffffffffffffffffffffffffffffffff82613a4a565b613a918683613a4a565b95508019841693508086168417925050509392505050565b6000819050919050565b6000613ace613ac9613ac484612916565b613aa9565b612916565b9050919050565b6000819050919050565b613ae883613ab3565b613afc613af482613ad5565b848454613a57565b825550505050565b600090565b613b11613b04565b613b1c818484613adf565b505050565b5b81811015613b4057613b35600082613b09565b600181019050613b22565b5050565b601f821115613b8557613b5681613a25565b613b5f84613a3a565b81016020851015613b6e578190505b613b82613b7a85613a3a565b830182613b21565b50505b505050565b600082821c905092915050565b6000613ba860001984600802613b8a565b1980831691505092915050565b6000613bc18383613b97565b9150826002028217905092915050565b613bda82612864565b67ffffffffffffffff811115613bf357613bf2612c6d565b5b613bfd82546130b6565b613c08828285613b44565b600060209050601f831160018114613c3b5760008415613c29578287015190505b613c338582613bb5565b865550613c9b565b601f198416613c4986613a25565b60005b82811015613c7157848901518255600182019150602085019450602081019050613c4c565b86831015613c8e5784890151613c8a601f891682613b97565b8355505b6001600288020188555050505b505050505050565b7f7072696365206d7573742062652061746c656173742031000000000000000000600082015250565b6000613cd960178361286f565b9150613ce482613ca3565b602082019050919050565b60006020820190508181036000830152613d0881613ccc565b9050919050565b7f7072696365206d757374206265206c697374696e672070726963650000000000600082015250565b6000613d45601b8361286f565b9150613d5082613d0f565b602082019050919050565b60006020820190508181036000830152613d7481613d38565b9050919050565b6000608082019050613d9060008301876129ab565b613d9d60208301866129ab565b613daa6040830185612bb9565b613db7606083018461283a565b95945050505050565b7f436f756e7465723a2064656372656d656e74206f766572666c6f770000000000600082015250565b6000613df6601b8361286f565b9150613e0182613dc0565b602082019050919050565b60006020820190508181036000830152613e2581613de9565b9050919050565b7f4552433732313a20617070726f766520746f2063616c6c657200000000000000600082015250565b6000613e6260198361286f565b9150613e6d82613e2c565b602082019050919050565b60006020820190508181036000830152613e9181613e55565b9050919050565b7f4552433732313a207472616e7366657220746f206e6f6e20455243373231526560008201527f63656976657220696d706c656d656e7465720000000000000000000000000000602082015250565b6000613ef460328361286f565b9150613eff82613e98565b604082019050919050565b60006020820190508181036000830152613f2381613ee7565b9050919050565b600081519050919050565b600082825260208201905092915050565b6000613f5182613f2a565b613f5b8185613f35565b9350613f6b818560208601612880565b613f74816128aa565b840191505092915050565b6000608082019050613f9460008301876129ab565b613fa160208301866129ab565b613fae6040830185612bb9565b8181036060830152613fc08184613f46565b905095945050505050565b600081519050613fda816127d5565b92915050565b600060208284031215613ff657613ff561279f565b5b600061400484828501613fcb565b91505092915050565b7f4e487b7100000000000000000000000000000000000000000000000000000000600052601260045260246000fd5b600061404782612916565b915061405283612916565b9250826140625761406161400d565b5b828204905092915050565b600061407882612916565b915061408383612916565b9250826140935761409261400d565b5b82820690509291505056fea2646970667358221220decde6aaa4178c3b3463f8e5249c9e8e4a04dc07252795e323e93555ea48894b64736f6c634300081c0033",
  "linkReferences": {},
  "deployedLinkReferences": {}
}